{
  "contractName": "LazyNFT",
  "abi": [
    {
      "inputs": [
        {
          "internalType": "address",
          "name": "_minter",
          "type": "address"
        }
      ],
      "stateMutability": "nonpayable",
      "type": "constructor"
    },
    {
      "anonymous": false,
      "inputs": [
        {
          "indexed": true,
          "internalType": "address",
          "name": "owner",
          "type": "address"
        },
        {
          "indexed": true,
          "internalType": "address",
          "name": "approved",
          "type": "address"
        },
        {
          "indexed": true,
          "internalType": "uint256",
          "name": "tokenId",
          "type": "uint256"
        }
      ],
      "name": "Approval",
      "type": "event"
    },
    {
      "anonymous": false,
      "inputs": [
        {
          "indexed": true,
          "internalType": "address",
          "name": "owner",
          "type": "address"
        },
        {
          "indexed": true,
          "internalType": "address",
          "name": "operator",
          "type": "address"
        },
        {
          "indexed": false,
          "internalType": "bool",
          "name": "approved",
          "type": "bool"
        }
      ],
      "name": "ApprovalForAll",
      "type": "event"
    },
    {
      "anonymous": false,
      "inputs": [
        {
          "indexed": true,
          "internalType": "address",
          "name": "previousOwner",
          "type": "address"
        },
        {
          "indexed": true,
          "internalType": "address",
          "name": "newOwner",
          "type": "address"
        }
      ],
      "name": "OwnershipTransferred",
      "type": "event"
    },
    {
      "anonymous": false,
      "inputs": [
        {
          "indexed": true,
          "internalType": "address",
          "name": "from",
          "type": "address"
        },
        {
          "indexed": true,
          "internalType": "address",
          "name": "to",
          "type": "address"
        },
        {
          "indexed": true,
          "internalType": "uint256",
          "name": "tokenId",
          "type": "uint256"
        }
      ],
      "name": "Transfer",
      "type": "event"
    },
    {
      "inputs": [
        {
          "internalType": "address",
          "name": "to",
          "type": "address"
        },
        {
          "internalType": "uint256",
          "name": "tokenId",
          "type": "uint256"
        }
      ],
      "name": "approve",
      "outputs": [],
      "stateMutability": "nonpayable",
      "type": "function"
    },
    {
      "inputs": [
        {
          "internalType": "address",
          "name": "owner",
          "type": "address"
        }
      ],
      "name": "balanceOf",
      "outputs": [
        {
          "internalType": "uint256",
          "name": "",
          "type": "uint256"
        }
      ],
      "stateMutability": "view",
      "type": "function",
      "constant": true
    },
    {
      "inputs": [
        {
          "internalType": "uint256",
          "name": "tokenId",
          "type": "uint256"
        }
      ],
      "name": "getApproved",
      "outputs": [
        {
          "internalType": "address",
          "name": "",
          "type": "address"
        }
      ],
      "stateMutability": "view",
      "type": "function",
      "constant": true
    },
    {
      "inputs": [
        {
          "internalType": "address",
          "name": "owner",
          "type": "address"
        },
        {
          "internalType": "address",
          "name": "operator",
          "type": "address"
        }
      ],
      "name": "isApprovedForAll",
      "outputs": [
        {
          "internalType": "bool",
          "name": "",
          "type": "bool"
        }
      ],
      "stateMutability": "view",
      "type": "function",
      "constant": true
    },
    {
      "inputs": [],
      "name": "minter",
      "outputs": [
        {
          "internalType": "address",
          "name": "",
          "type": "address"
        }
      ],
      "stateMutability": "view",
      "type": "function",
      "constant": true
    },
    {
      "inputs": [],
      "name": "name",
      "outputs": [
        {
          "internalType": "string",
          "name": "",
          "type": "string"
        }
      ],
      "stateMutability": "view",
      "type": "function",
      "constant": true
    },
    {
      "inputs": [],
      "name": "owner",
      "outputs": [
        {
          "internalType": "address",
          "name": "",
          "type": "address"
        }
      ],
      "stateMutability": "view",
      "type": "function",
      "constant": true
    },
    {
      "inputs": [
        {
          "internalType": "uint256",
          "name": "tokenId",
          "type": "uint256"
        }
      ],
      "name": "ownerOf",
      "outputs": [
        {
          "internalType": "address",
          "name": "",
          "type": "address"
        }
      ],
      "stateMutability": "view",
      "type": "function",
      "constant": true
    },
    {
      "inputs": [],
      "name": "renounceOwnership",
      "outputs": [],
      "stateMutability": "nonpayable",
      "type": "function"
    },
    {
      "inputs": [
        {
          "internalType": "address",
          "name": "from",
          "type": "address"
        },
        {
          "internalType": "address",
          "name": "to",
          "type": "address"
        },
        {
          "internalType": "uint256",
          "name": "tokenId",
          "type": "uint256"
        }
      ],
      "name": "safeTransferFrom",
      "outputs": [],
      "stateMutability": "nonpayable",
      "type": "function"
    },
    {
      "inputs": [
        {
          "internalType": "address",
          "name": "from",
          "type": "address"
        },
        {
          "internalType": "address",
          "name": "to",
          "type": "address"
        },
        {
          "internalType": "uint256",
          "name": "tokenId",
          "type": "uint256"
        },
        {
          "internalType": "bytes",
          "name": "data",
          "type": "bytes"
        }
      ],
      "name": "safeTransferFrom",
      "outputs": [],
      "stateMutability": "nonpayable",
      "type": "function"
    },
    {
      "inputs": [
        {
          "internalType": "address",
          "name": "operator",
          "type": "address"
        },
        {
          "internalType": "bool",
          "name": "approved",
          "type": "bool"
        }
      ],
      "name": "setApprovalForAll",
      "outputs": [],
      "stateMutability": "nonpayable",
      "type": "function"
    },
    {
      "inputs": [
        {
          "internalType": "bytes4",
          "name": "interfaceId",
          "type": "bytes4"
        }
      ],
      "name": "supportsInterface",
      "outputs": [
        {
          "internalType": "bool",
          "name": "",
          "type": "bool"
        }
      ],
      "stateMutability": "view",
      "type": "function",
      "constant": true
    },
    {
      "inputs": [],
      "name": "symbol",
      "outputs": [
        {
          "internalType": "string",
          "name": "",
          "type": "string"
        }
      ],
      "stateMutability": "view",
      "type": "function",
      "constant": true
    },
    {
      "inputs": [
        {
          "internalType": "address",
          "name": "from",
          "type": "address"
        },
        {
          "internalType": "address",
          "name": "to",
          "type": "address"
        },
        {
          "internalType": "uint256",
          "name": "tokenId",
          "type": "uint256"
        }
      ],
      "name": "transferFrom",
      "outputs": [],
      "stateMutability": "nonpayable",
      "type": "function"
    },
    {
      "inputs": [
        {
          "internalType": "address",
          "name": "newOwner",
          "type": "address"
        }
      ],
      "name": "transferOwnership",
      "outputs": [],
      "stateMutability": "nonpayable",
      "type": "function"
    },
    {
      "inputs": [
        {
          "components": [
            {
              "internalType": "uint256",
              "name": "tokenId",
              "type": "uint256"
            },
            {
              "internalType": "uint256",
              "name": "price",
              "type": "uint256"
            },
            {
              "internalType": "string",
              "name": "uri",
              "type": "string"
            },
            {
              "internalType": "address",
              "name": "buyer",
              "type": "address"
            },
            {
              "internalType": "bytes",
              "name": "signature",
              "type": "bytes"
            }
          ],
          "internalType": "struct LazyNFT.LazyNFTVoucher",
          "name": "voucher",
          "type": "tuple"
        }
      ],
      "name": "recover",
      "outputs": [
        {
          "internalType": "address",
          "name": "",
          "type": "address"
        }
      ],
      "stateMutability": "view",
      "type": "function",
      "constant": true
    },
    {
      "inputs": [
        {
          "components": [
            {
              "internalType": "uint256",
              "name": "tokenId",
              "type": "uint256"
            },
            {
              "internalType": "uint256",
              "name": "price",
              "type": "uint256"
            },
            {
              "internalType": "string",
              "name": "uri",
              "type": "string"
            },
            {
              "internalType": "address",
              "name": "buyer",
              "type": "address"
            },
            {
              "internalType": "bytes",
              "name": "signature",
              "type": "bytes"
            }
          ],
          "internalType": "struct LazyNFT.LazyNFTVoucher",
          "name": "voucher",
          "type": "tuple"
        }
      ],
      "name": "safeMint",
      "outputs": [],
      "stateMutability": "payable",
      "type": "function",
      "payable": true
    },
    {
      "inputs": [
        {
          "internalType": "uint256",
          "name": "tokenId",
          "type": "uint256"
        }
      ],
      "name": "tokenURI",
      "outputs": [
        {
          "internalType": "string",
          "name": "",
          "type": "string"
        }
      ],
      "stateMutability": "view",
      "type": "function",
      "constant": true
    }
  ],
  "bytecode": "0x6101406040523480156200001257600080fd5b5060405162004515380380620045158339818101604052810190620000389190620003c4565b6040518060400160405280600e81526020017f566f75636865722d446f6d61696e0000000000000000000000000000000000008152506040518060400160405280600181526020017f31000000000000000000000000000000000000000000000000000000000000008152506040518060400160405280600781526020017f4c617a794e4654000000000000000000000000000000000000000000000000008152506040518060400160405280600481526020017f4c4e465400000000000000000000000000000000000000000000000000000000815250816000908162000121919062000670565b50806001908162000133919062000670565b505050620001566200014a6200025060201b60201c565b6200025860201b60201c565b60008280519060200120905060008280519060200120905060007f8b73c3c69bb8fe3d512ecc4cf759cc79239f7b179b0ffacaa9a75d522b39400f90508260e081815250508161010081815250504660a08181525050620001bf8184846200031e60201b60201c565b608081815250503073ffffffffffffffffffffffffffffffffffffffff1660c08173ffffffffffffffffffffffffffffffffffffffff1681525050806101208181525050505050505080600860006101000a81548173ffffffffffffffffffffffffffffffffffffffff021916908373ffffffffffffffffffffffffffffffffffffffff16021790555050620007f1565b600033905090565b6000600760009054906101000a900473ffffffffffffffffffffffffffffffffffffffff16905081600760006101000a81548173ffffffffffffffffffffffffffffffffffffffff021916908373ffffffffffffffffffffffffffffffffffffffff1602179055508173ffffffffffffffffffffffffffffffffffffffff168173ffffffffffffffffffffffffffffffffffffffff167f8be0079c531659141344cd1fd0a4f28419497f9722a3daafe3b4186f6b6457e060405160405180910390a35050565b600083838346306040516020016200033b95949392919062000794565b6040516020818303038152906040528051906020012090509392505050565b600080fd5b600073ffffffffffffffffffffffffffffffffffffffff82169050919050565b60006200038c826200035f565b9050919050565b6200039e816200037f565b8114620003aa57600080fd5b50565b600081519050620003be8162000393565b92915050565b600060208284031215620003dd57620003dc6200035a565b5b6000620003ed84828501620003ad565b91505092915050565b600081519050919050565b7f4e487b7100000000000000000000000000000000000000000000000000000000600052604160045260246000fd5b7f4e487b7100000000000000000000000000000000000000000000000000000000600052602260045260246000fd5b600060028204905060018216806200047857607f821691505b6020821081036200048e576200048d62000430565b5b50919050565b60008190508160005260206000209050919050565b60006020601f8301049050919050565b600082821b905092915050565b600060088302620004f87fffffffffffffffffffffffffffffffffffffffffffffffffffffffffffffffff82620004b9565b620005048683620004b9565b95508019841693508086168417925050509392505050565b6000819050919050565b6000819050919050565b6000620005516200054b62000545846200051c565b62000526565b6200051c565b9050919050565b6000819050919050565b6200056d8362000530565b620005856200057c8262000558565b848454620004c6565b825550505050565b600090565b6200059c6200058d565b620005a981848462000562565b505050565b5b81811015620005d157620005c560008262000592565b600181019050620005af565b5050565b601f8211156200062057620005ea8162000494565b620005f584620004a9565b8101602085101562000605578190505b6200061d6200061485620004a9565b830182620005ae565b50505b505050565b600082821c905092915050565b6000620006456000198460080262000625565b1980831691505092915050565b600062000660838362000632565b9150826002028217905092915050565b6200067b82620003f6565b67ffffffffffffffff81111562000697576200069662000401565b5b620006a382546200045f565b620006b0828285620005d5565b600060209050601f831160018114620006e85760008415620006d3578287015190505b620006df858262000652565b8655506200074f565b601f198416620006f88662000494565b60005b828110156200072257848901518255600182019150602085019450602081019050620006fb565b868310156200074257848901516200073e601f89168262000632565b8355505b6001600288020188555050505b505050505050565b6000819050919050565b6200076c8162000757565b82525050565b6200077d816200051c565b82525050565b6200078e816200037f565b82525050565b600060a082019050620007ab600083018862000761565b620007ba602083018762000761565b620007c9604083018662000761565b620007d8606083018562000772565b620007e7608083018462000783565b9695505050505050565b60805160a05160c05160e0516101005161012051613cd4620008416000396000611a8901526000611acb01526000611aaa015260006119df01526000611a3501526000611a5e0152613cd46000f3fe6080604052600436106101145760003560e01c806370a08231116100a0578063a22cb46511610064578063a22cb465146103a4578063b88d4fde146103cd578063c87b56dd146103f6578063e985e9c514610433578063f2fde38b1461047057610114565b806370a08231146102bd578063715018a6146102fa57806380582374146103115780638da5cb5b1461034e57806395d89b411461037957610114565b8063095ea7b3116100e7578063095ea7b3146101e957806323b872dd1461021257806342842e0e1461023b578063451f5078146102645780636352211e1461028057610114565b806301ffc9a71461011957806306fdde03146101565780630754617214610181578063081812fc146101ac575b600080fd5b34801561012557600080fd5b50610140600480360381019061013b91906124ce565b610499565b60405161014d9190612516565b60405180910390f35b34801561016257600080fd5b5061016b61057b565b60405161017891906125c1565b60405180910390f35b34801561018d57600080fd5b5061019661060d565b6040516101a39190612624565b60405180910390f35b3480156101b857600080fd5b506101d360048036038101906101ce9190612675565b610633565b6040516101e09190612624565b60405180910390f35b3480156101f557600080fd5b50610210600480360381019061020b91906126ce565b610679565b005b34801561021e57600080fd5b506102396004803603810190610234919061270e565b610790565b005b34801561024757600080fd5b50610262600480360381019061025d919061270e565b6107f0565b005b61027e60048036038101906102799190612785565b610810565b005b34801561028c57600080fd5b506102a760048036038101906102a29190612675565b610957565b6040516102b49190612624565b60405180910390f35b3480156102c957600080fd5b506102e460048036038101906102df91906127ce565b6109dd565b6040516102f1919061280a565b60405180910390f35b34801561030657600080fd5b5061030f610a94565b005b34801561031d57600080fd5b5061033860048036038101906103339190612785565b610aa8565b6040516103459190612624565b60405180910390f35b34801561035a57600080fd5b50610363610b8b565b6040516103709190612624565b60405180910390f35b34801561038557600080fd5b5061038e610bb5565b60405161039b91906125c1565b60405180910390f35b3480156103b057600080fd5b506103cb60048036038101906103c69190612851565b610c47565b005b3480156103d957600080fd5b506103f460048036038101906103ef91906129c6565b610c5d565b005b34801561040257600080fd5b5061041d60048036038101906104189190612675565b610cbf565b60405161042a91906125c1565b60405180910390f35b34801561043f57600080fd5b5061045a60048036038101906104559190612a49565b610cd1565b6040516104679190612516565b60405180910390f35b34801561047c57600080fd5b50610497600480360381019061049291906127ce565b610d65565b005b60007f80ac58cd000000000000000000000000000000000000000000000000000000007bffffffffffffffffffffffffffffffffffffffffffffffffffffffff1916827bffffffffffffffffffffffffffffffffffffffffffffffffffffffff1916148061056457507f5b5e139f000000000000000000000000000000000000000000000000000000007bffffffffffffffffffffffffffffffffffffffffffffffffffffffff1916827bffffffffffffffffffffffffffffffffffffffffffffffffffffffff1916145b80610574575061057382610de8565b5b9050919050565b60606000805461058a90612ab8565b80601f01602080910402602001604051908101604052809291908181526020018280546105b690612ab8565b80156106035780601f106105d857610100808354040283529160200191610603565b820191906000526020600020905b8154815290600101906020018083116105e657829003601f168201915b5050505050905090565b600860009054906101000a900473ffffffffffffffffffffffffffffffffffffffff1681565b600061063e82610e52565b6004600083815260200190815260200160002060009054906101000a900473ffffffffffffffffffffffffffffffffffffffff169050919050565b600061068482610957565b90508073ffffffffffffffffffffffffffffffffffffffff168373ffffffffffffffffffffffffffffffffffffffff16036106f4576040517f08c379a00000000000000000000000000000000000000000000000000000000081526004016106eb90612b5b565b60405180910390fd5b8073ffffffffffffffffffffffffffffffffffffffff16610713610e9d565b73ffffffffffffffffffffffffffffffffffffffff16148061074257506107418161073c610e9d565b610cd1565b5b610781576040517f08c379a000000000000000000000000000000000000000000000000000000000815260040161077890612bed565b60405180910390fd5b61078b8383610ea5565b505050565b6107a161079b610e9d565b82610f5e565b6107e0576040517f08c379a00000000000000000000000000000000000000000000000000000000081526004016107d790612c7f565b60405180910390fd5b6107eb838383610ff3565b505050565b61080b83838360405180602001604052806000815250610c5d565b505050565b61081981610aa8565b73ffffffffffffffffffffffffffffffffffffffff16610837610b8b565b73ffffffffffffffffffffffffffffffffffffffff161461088d576040517f08c379a000000000000000000000000000000000000000000000000000000000815260040161088490612ceb565b60405180910390fd5b80602001353410156108d4576040517f08c379a00000000000000000000000000000000000000000000000000000000081526004016108cb90612d57565b60405180910390fd5b6108f48160600160208101906108ea91906127ce565b82600001356112ec565b610954816000013582806040019061090c9190612d86565b8080601f016020809104026020016040519081016040528093929190818152602001838380828437600081840152601f19601f8201169050808301925050505050505061130a565b50565b60008061096383611377565b9050600073ffffffffffffffffffffffffffffffffffffffff168173ffffffffffffffffffffffffffffffffffffffff16036109d4576040517f08c379a00000000000000000000000000000000000000000000000000000000081526004016109cb90612e35565b60405180910390fd5b80915050919050565b60008073ffffffffffffffffffffffffffffffffffffffff168273ffffffffffffffffffffffffffffffffffffffff1603610a4d576040517f08c379a0000000000000000000000000000000000000000000000000000000008152600401610a4490612ec7565b60405180910390fd5b600360008373ffffffffffffffffffffffffffffffffffffffff1673ffffffffffffffffffffffffffffffffffffffff168152602001908152602001600020549050919050565b610a9c6113b4565b610aa66000611432565b565b600080610b1f83600001358460200135858060400190610ac89190612d86565b604051610ad6929190612f17565b6040518091039020866060016020810190610af191906127ce565b604051602001610b049493929190612fe1565b604051602081830303815290604052805190602001206114f8565b90506000610b7f82858060800190610b379190613039565b8080601f016020809104026020016040519081016040528093929190818152602001838380828437600081840152601f19601f82011690508083019250505050505050611512565b90508092505050919050565b6000600760009054906101000a900473ffffffffffffffffffffffffffffffffffffffff16905090565b606060018054610bc490612ab8565b80601f0160208091040260200160405190810160405280929190818152602001828054610bf090612ab8565b8015610c3d5780601f10610c1257610100808354040283529160200191610c3d565b820191906000526020600020905b815481529060010190602001808311610c2057829003601f168201915b5050505050905090565b610c59610c52610e9d565b8383611539565b5050565b610c6e610c68610e9d565b83610f5e565b610cad576040517f08c379a0000000000000000000000000000000000000000000000000000000008152600401610ca490612c7f565b60405180910390fd5b610cb9848484846116a5565b50505050565b6060610cca82611701565b9050919050565b6000600560008473ffffffffffffffffffffffffffffffffffffffff1673ffffffffffffffffffffffffffffffffffffffff16815260200190815260200160002060008373ffffffffffffffffffffffffffffffffffffffff1673ffffffffffffffffffffffffffffffffffffffff16815260200190815260200160002060009054906101000a900460ff16905092915050565b610d6d6113b4565b600073ffffffffffffffffffffffffffffffffffffffff168173ffffffffffffffffffffffffffffffffffffffff1603610ddc576040517f08c379a0000000000000000000000000000000000000000000000000000000008152600401610dd39061310e565b60405180910390fd5b610de581611432565b50565b60007f01ffc9a7000000000000000000000000000000000000000000000000000000007bffffffffffffffffffffffffffffffffffffffffffffffffffffffff1916827bffffffffffffffffffffffffffffffffffffffffffffffffffffffff1916149050919050565b610e5b81611813565b610e9a576040517f08c379a0000000000000000000000000000000000000000000000000000000008152600401610e9190612e35565b60405180910390fd5b50565b600033905090565b816004600083815260200190815260200160002060006101000a81548173ffffffffffffffffffffffffffffffffffffffff021916908373ffffffffffffffffffffffffffffffffffffffff160217905550808273ffffffffffffffffffffffffffffffffffffffff16610f1883610957565b73ffffffffffffffffffffffffffffffffffffffff167f8c5be1e5ebec7d5bd14f71427d1e84f3dd0314c0f7b2291e5b200ac8c7c3b92560405160405180910390a45050565b600080610f6a83610957565b90508073ffffffffffffffffffffffffffffffffffffffff168473ffffffffffffffffffffffffffffffffffffffff161480610fac5750610fab8185610cd1565b5b80610fea57508373ffffffffffffffffffffffffffffffffffffffff16610fd284610633565b73ffffffffffffffffffffffffffffffffffffffff16145b91505092915050565b8273ffffffffffffffffffffffffffffffffffffffff1661101382610957565b73ffffffffffffffffffffffffffffffffffffffff1614611069576040517f08c379a0000000000000000000000000000000000000000000000000000000008152600401611060906131a0565b60405180910390fd5b600073ffffffffffffffffffffffffffffffffffffffff168273ffffffffffffffffffffffffffffffffffffffff16036110d8576040517f08c379a00000000000000000000000000000000000000000000000000000000081526004016110cf90613232565b60405180910390fd5b6110e58383836001611854565b8273ffffffffffffffffffffffffffffffffffffffff1661110582610957565b73ffffffffffffffffffffffffffffffffffffffff161461115b576040517f08c379a0000000000000000000000000000000000000000000000000000000008152600401611152906131a0565b60405180910390fd5b6004600082815260200190815260200160002060006101000a81549073ffffffffffffffffffffffffffffffffffffffff02191690556001600360008573ffffffffffffffffffffffffffffffffffffffff1673ffffffffffffffffffffffffffffffffffffffff168152602001908152602001600020600082825403925050819055506001600360008473ffffffffffffffffffffffffffffffffffffffff1673ffffffffffffffffffffffffffffffffffffffff16815260200190815260200160002060008282540192505081905550816002600083815260200190815260200160002060006101000a81548173ffffffffffffffffffffffffffffffffffffffff021916908373ffffffffffffffffffffffffffffffffffffffff160217905550808273ffffffffffffffffffffffffffffffffffffffff168473ffffffffffffffffffffffffffffffffffffffff167fddf252ad1be2c89b69c2b068fc378daa952ba7f163c4a11628f55a4df523b3ef60405160405180910390a46112e7838383600161197a565b505050565b611306828260405180602001604052806000815250611980565b5050565b61131382611813565b611352576040517f08c379a0000000000000000000000000000000000000000000000000000000008152600401611349906132c4565b60405180910390fd5b806006600084815260200190815260200160002090816113729190613490565b505050565b60006002600083815260200190815260200160002060009054906101000a900473ffffffffffffffffffffffffffffffffffffffff169050919050565b6113bc610e9d565b73ffffffffffffffffffffffffffffffffffffffff166113da610b8b565b73ffffffffffffffffffffffffffffffffffffffff1614611430576040517f08c379a0000000000000000000000000000000000000000000000000000000008152600401611427906135ae565b60405180910390fd5b565b6000600760009054906101000a900473ffffffffffffffffffffffffffffffffffffffff16905081600760006101000a81548173ffffffffffffffffffffffffffffffffffffffff021916908373ffffffffffffffffffffffffffffffffffffffff1602179055508173ffffffffffffffffffffffffffffffffffffffff168173ffffffffffffffffffffffffffffffffffffffff167f8be0079c531659141344cd1fd0a4f28419497f9722a3daafe3b4186f6b6457e060405160405180910390a35050565b600061150b6115056119db565b83611af5565b9050919050565b60008060006115218585611b28565b9150915061152e81611b79565b819250505092915050565b8173ffffffffffffffffffffffffffffffffffffffff168373ffffffffffffffffffffffffffffffffffffffff16036115a7576040517f08c379a000000000000000000000000000000000000000000000000000000000815260040161159e9061361a565b60405180910390fd5b80600560008573ffffffffffffffffffffffffffffffffffffffff1673ffffffffffffffffffffffffffffffffffffffff16815260200190815260200160002060008473ffffffffffffffffffffffffffffffffffffffff1673ffffffffffffffffffffffffffffffffffffffff16815260200190815260200160002060006101000a81548160ff0219169083151502179055508173ffffffffffffffffffffffffffffffffffffffff168373ffffffffffffffffffffffffffffffffffffffff167f17307eab39ab6107e8899845ad3d59bd9653f200f220920489ca2b5937696c31836040516116989190612516565b60405180910390a3505050565b6116b0848484610ff3565b6116bc84848484611cdf565b6116fb576040517f08c379a00000000000000000000000000000000000000000000000000000000081526004016116f2906136ac565b60405180910390fd5b50505050565b606061170c82610e52565b600060066000848152602001908152602001600020805461172c90612ab8565b80601f016020809104026020016040519081016040528092919081815260200182805461175890612ab8565b80156117a55780601f1061177a576101008083540402835291602001916117a5565b820191906000526020600020905b81548152906001019060200180831161178857829003601f168201915b5050505050905060006117b6611e66565b905060008151036117cb57819250505061180e565b6000825111156118005780826040516020016117e8929190613708565b6040516020818303038152906040529250505061180e565b61180984611e7d565b925050505b919050565b60008073ffffffffffffffffffffffffffffffffffffffff1661183583611377565b73ffffffffffffffffffffffffffffffffffffffff1614159050919050565b600181111561197457600073ffffffffffffffffffffffffffffffffffffffff168473ffffffffffffffffffffffffffffffffffffffff16146118e85780600360008673ffffffffffffffffffffffffffffffffffffffff1673ffffffffffffffffffffffffffffffffffffffff16815260200190815260200160002060008282546118e0919061375b565b925050819055505b600073ffffffffffffffffffffffffffffffffffffffff168373ffffffffffffffffffffffffffffffffffffffff16146119735780600360008573ffffffffffffffffffffffffffffffffffffffff1673ffffffffffffffffffffffffffffffffffffffff168152602001908152602001600020600082825461196b919061378f565b925050819055505b5b50505050565b50505050565b61198a8383611ee5565b6119976000848484611cdf565b6119d6576040517f08c379a00000000000000000000000000000000000000000000000000000000081526004016119cd906136ac565b60405180910390fd5b505050565b60007f000000000000000000000000000000000000000000000000000000000000000073ffffffffffffffffffffffffffffffffffffffff163073ffffffffffffffffffffffffffffffffffffffff16148015611a5757507f000000000000000000000000000000000000000000000000000000000000000046145b15611a84577f00000000000000000000000000000000000000000000000000000000000000009050611af2565b611aef7f00000000000000000000000000000000000000000000000000000000000000007f00000000000000000000000000000000000000000000000000000000000000007f0000000000000000000000000000000000000000000000000000000000000000612102565b90505b90565b60008282604051602001611b0a929190613830565b60405160208183030381529060405280519060200120905092915050565b6000806041835103611b695760008060006020860151925060408601519150606086015160001a9050611b5d8782858561213c565b94509450505050611b72565b60006002915091505b9250929050565b60006004811115611b8d57611b8c613867565b5b816004811115611ba057611b9f613867565b5b0315611cdc5760016004811115611bba57611bb9613867565b5b816004811115611bcd57611bcc613867565b5b03611c0d576040517f08c379a0000000000000000000000000000000000000000000000000000000008152600401611c04906138e2565b60405180910390fd5b60026004811115611c2157611c20613867565b5b816004811115611c3457611c33613867565b5b03611c74576040517f08c379a0000000000000000000000000000000000000000000000000000000008152600401611c6b9061394e565b60405180910390fd5b60036004811115611c8857611c87613867565b5b816004811115611c9b57611c9a613867565b5b03611cdb576040517f08c379a0000000000000000000000000000000000000000000000000000000008152600401611cd2906139e0565b60405180910390fd5b5b50565b6000611d008473ffffffffffffffffffffffffffffffffffffffff1661221e565b15611e59578373ffffffffffffffffffffffffffffffffffffffff1663150b7a02611d29610e9d565b8786866040518563ffffffff1660e01b8152600401611d4b9493929190613a55565b6020604051808303816000875af1925050508015611d8757506040513d601f19601f82011682018060405250810190611d849190613ab6565b60015b611e09573d8060008114611db7576040519150601f19603f3d011682016040523d82523d6000602084013e611dbc565b606091505b506000815103611e01576040517f08c379a0000000000000000000000000000000000000000000000000000000008152600401611df8906136ac565b60405180910390fd5b805181602001fd5b63150b7a0260e01b7bffffffffffffffffffffffffffffffffffffffffffffffffffffffff1916817bffffffffffffffffffffffffffffffffffffffffffffffffffffffff191614915050611e5e565b600190505b949350505050565b606060405180602001604052806000815250905090565b6060611e8882610e52565b6000611e92611e66565b90506000815111611eb25760405180602001604052806000815250611edd565b80611ebc84612241565b604051602001611ecd929190613708565b6040516020818303038152906040525b915050919050565b600073ffffffffffffffffffffffffffffffffffffffff168273ffffffffffffffffffffffffffffffffffffffff1603611f54576040517f08c379a0000000000000000000000000000000000000000000000000000000008152600401611f4b90613b2f565b60405180910390fd5b611f5d81611813565b15611f9d576040517f08c379a0000000000000000000000000000000000000000000000000000000008152600401611f9490613b9b565b60405180910390fd5b611fab600083836001611854565b611fb481611813565b15611ff4576040517f08c379a0000000000000000000000000000000000000000000000000000000008152600401611feb90613b9b565b60405180910390fd5b6001600360008473ffffffffffffffffffffffffffffffffffffffff1673ffffffffffffffffffffffffffffffffffffffff16815260200190815260200160002060008282540192505081905550816002600083815260200190815260200160002060006101000a81548173ffffffffffffffffffffffffffffffffffffffff021916908373ffffffffffffffffffffffffffffffffffffffff160217905550808273ffffffffffffffffffffffffffffffffffffffff16600073ffffffffffffffffffffffffffffffffffffffff167fddf252ad1be2c89b69c2b068fc378daa952ba7f163c4a11628f55a4df523b3ef60405160405180910390a46120fe60008383600161197a565b5050565b6000838383463060405160200161211d959493929190613bbb565b6040516020818303038152906040528051906020012090509392505050565b6000807f7fffffffffffffffffffffffffffffff5d576e7357a4501ddfe92f46681b20a08360001c1115612177576000600391509150612215565b60006001878787876040516000815260200160405260405161219c9493929190613c2a565b6020604051602081039080840390855afa1580156121be573d6000803e3d6000fd5b505050602060405103519050600073ffffffffffffffffffffffffffffffffffffffff168173ffffffffffffffffffffffffffffffffffffffff160361220c57600060019250925050612215565b80600092509250505b94509492505050565b6000808273ffffffffffffffffffffffffffffffffffffffff163b119050919050565b6060600060016122508461230f565b01905060008167ffffffffffffffff81111561226f5761226e61289b565b5b6040519080825280601f01601f1916602001820160405280156122a15781602001600182028036833780820191505090505b509050600082602001820190505b600115612304578080600190039150507f3031323334353637383961626364656600000000000000000000000000000000600a86061a8153600a85816122f8576122f7613c6f565b5b049450600085036122af575b819350505050919050565b600080600090507a184f03e93ff9f4daa797ed6e38ed64bf6a1f010000000000000000831061236d577a184f03e93ff9f4daa797ed6e38ed64bf6a1f010000000000000000838161236357612362613c6f565b5b0492506040810190505b6d04ee2d6d415b85acef810000000083106123aa576d04ee2d6d415b85acef810000000083816123a05761239f613c6f565b5b0492506020810190505b662386f26fc1000083106123d957662386f26fc1000083816123cf576123ce613c6f565b5b0492506010810190505b6305f5e1008310612402576305f5e10083816123f8576123f7613c6f565b5b0492506008810190505b612710831061242757612710838161241d5761241c613c6f565b5b0492506004810190505b6064831061244a57606483816124405761243f613c6f565b5b0492506002810190505b600a8310612459576001810190505b80915050919050565b6000604051905090565b600080fd5b600080fd5b60007fffffffff0000000000000000000000000000000000000000000000000000000082169050919050565b6124ab81612476565b81146124b657600080fd5b50565b6000813590506124c8816124a2565b92915050565b6000602082840312156124e4576124e361246c565b5b60006124f2848285016124b9565b91505092915050565b60008115159050919050565b612510816124fb565b82525050565b600060208201905061252b6000830184612507565b92915050565b600081519050919050565b600082825260208201905092915050565b60005b8381101561256b578082015181840152602081019050612550565b60008484015250505050565b6000601f19601f8301169050919050565b600061259382612531565b61259d818561253c565b93506125ad81856020860161254d565b6125b681612577565b840191505092915050565b600060208201905081810360008301526125db8184612588565b905092915050565b600073ffffffffffffffffffffffffffffffffffffffff82169050919050565b600061260e826125e3565b9050919050565b61261e81612603565b82525050565b60006020820190506126396000830184612615565b92915050565b6000819050919050565b6126528161263f565b811461265d57600080fd5b50565b60008135905061266f81612649565b92915050565b60006020828403121561268b5761268a61246c565b5b600061269984828501612660565b91505092915050565b6126ab81612603565b81146126b657600080fd5b50565b6000813590506126c8816126a2565b92915050565b600080604083850312156126e5576126e461246c565b5b60006126f3858286016126b9565b925050602061270485828601612660565b9150509250929050565b6000806000606084860312156127275761272661246c565b5b6000612735868287016126b9565b9350506020612746868287016126b9565b925050604061275786828701612660565b9150509250925092565b600080fd5b600060a0828403121561277c5761277b612761565b5b81905092915050565b60006020828403121561279b5761279a61246c565b5b600082013567ffffffffffffffff8111156127b9576127b8612471565b5b6127c584828501612766565b91505092915050565b6000602082840312156127e4576127e361246c565b5b60006127f2848285016126b9565b91505092915050565b6128048161263f565b82525050565b600060208201905061281f60008301846127fb565b92915050565b61282e816124fb565b811461283957600080fd5b50565b60008135905061284b81612825565b92915050565b600080604083850312156128685761286761246c565b5b6000612876858286016126b9565b92505060206128878582860161283c565b9150509250929050565b600080fd5b600080fd5b7f4e487b7100000000000000000000000000000000000000000000000000000000600052604160045260246000fd5b6128d382612577565b810181811067ffffffffffffffff821117156128f2576128f161289b565b5b80604052505050565b6000612905612462565b905061291182826128ca565b919050565b600067ffffffffffffffff8211156129315761293061289b565b5b61293a82612577565b9050602081019050919050565b82818337600083830152505050565b600061296961296484612916565b6128fb565b90508281526020810184848401111561298557612984612896565b5b612990848285612947565b509392505050565b600082601f8301126129ad576129ac612891565b5b81356129bd848260208601612956565b91505092915050565b600080600080608085870312156129e0576129df61246c565b5b60006129ee878288016126b9565b94505060206129ff878288016126b9565b9350506040612a1087828801612660565b925050606085013567ffffffffffffffff811115612a3157612a30612471565b5b612a3d87828801612998565b91505092959194509250565b60008060408385031215612a6057612a5f61246c565b5b6000612a6e858286016126b9565b9250506020612a7f858286016126b9565b9150509250929050565b7f4e487b7100000000000000000000000000000000000000000000000000000000600052602260045260246000fd5b60006002820490506001821680612ad057607f821691505b602082108103612ae357612ae2612a89565b5b50919050565b7f4552433732313a20617070726f76616c20746f2063757272656e74206f776e6560008201527f7200000000000000000000000000000000000000000000000000000000000000602082015250565b6000612b4560218361253c565b9150612b5082612ae9565b604082019050919050565b60006020820190508181036000830152612b7481612b38565b9050919050565b7f4552433732313a20617070726f76652063616c6c6572206973206e6f7420746f60008201527f6b656e206f776e6572206f7220617070726f76656420666f7220616c6c000000602082015250565b6000612bd7603d8361253c565b9150612be282612b7b565b604082019050919050565b60006020820190508181036000830152612c0681612bca565b9050919050565b7f4552433732313a2063616c6c6572206973206e6f7420746f6b656e206f776e6560008201527f72206f7220617070726f76656400000000000000000000000000000000000000602082015250565b6000612c69602d8361253c565b9150612c7482612c0d565b604082019050919050565b60006020820190508181036000830152612c9881612c5c565b9050919050565b7f57726f6e67205369676e61747572650000000000000000000000000000000000600082015250565b6000612cd5600f8361253c565b9150612ce082612c9f565b602082019050919050565b60006020820190508181036000830152612d0481612cc8565b9050919050565b7f4e6f7420656e6f75676820657468657200000000000000000000000000000000600082015250565b6000612d4160108361253c565b9150612d4c82612d0b565b602082019050919050565b60006020820190508181036000830152612d7081612d34565b9050919050565b600080fd5b600080fd5b600080fd5b60008083356001602003843603038112612da357612da2612d77565b5b80840192508235915067ffffffffffffffff821115612dc557612dc4612d7c565b5b602083019250600182023603831315612de157612de0612d81565b5b509250929050565b7f4552433732313a20696e76616c696420746f6b656e2049440000000000000000600082015250565b6000612e1f60188361253c565b9150612e2a82612de9565b602082019050919050565b60006020820190508181036000830152612e4e81612e12565b9050919050565b7f4552433732313a2061646472657373207a65726f206973206e6f74206120766160008201527f6c6964206f776e65720000000000000000000000000000000000000000000000602082015250565b6000612eb160298361253c565b9150612ebc82612e55565b604082019050919050565b60006020820190508181036000830152612ee081612ea4565b9050919050565b600081905092915050565b6000612efe8385612ee7565b9350612f0b838584612947565b82840190509392505050565b6000612f24828486612ef2565b91508190509392505050565b7f4c617a794e4654566f75636865722875696e7432353620746f6b656e49442c2060008201527f75696e743235362070726963652c20737472696e67207572692c20616464726560208201527f7373206275796572290000000000000000000000000000000000000000000000604082015250565b6000612fb260498361253c565b9150612fbd82612f30565b606082019050919050565b6000819050919050565b612fdb81612fc8565b82525050565b600060a0820190508181036000830152612ffa81612fa5565b905061300960208301876127fb565b61301660408301866127fb565b6130236060830185612fd2565b6130306080830184612615565b95945050505050565b6000808335600160200384360303811261305657613055612d77565b5b80840192508235915067ffffffffffffffff82111561307857613077612d7c565b5b60208301925060018202360383131561309457613093612d81565b5b509250929050565b7f4f776e61626c653a206e6577206f776e657220697320746865207a65726f206160008201527f6464726573730000000000000000000000000000000000000000000000000000602082015250565b60006130f860268361253c565b91506131038261309c565b604082019050919050565b60006020820190508181036000830152613127816130eb565b9050919050565b7f4552433732313a207472616e736665722066726f6d20696e636f72726563742060008201527f6f776e6572000000000000000000000000000000000000000000000000000000602082015250565b600061318a60258361253c565b91506131958261312e565b604082019050919050565b600060208201905081810360008301526131b98161317d565b9050919050565b7f4552433732313a207472616e7366657220746f20746865207a65726f2061646460008201527f7265737300000000000000000000000000000000000000000000000000000000602082015250565b600061321c60248361253c565b9150613227826131c0565b604082019050919050565b6000602082019050818103600083015261324b8161320f565b9050919050565b7f45524337323155524953746f726167653a2055524920736574206f66206e6f6e60008201527f6578697374656e7420746f6b656e000000000000000000000000000000000000602082015250565b60006132ae602e8361253c565b91506132b982613252565b604082019050919050565b600060208201905081810360008301526132dd816132a1565b9050919050565b60008190508160005260206000209050919050565b60006020601f8301049050919050565b600082821b905092915050565b6000600883026133467fffffffffffffffffffffffffffffffffffffffffffffffffffffffffffffffff82613309565b6133508683613309565b95508019841693508086168417925050509392505050565b6000819050919050565b600061338d6133886133838461263f565b613368565b61263f565b9050919050565b6000819050919050565b6133a783613372565b6133bb6133b382613394565b848454613316565b825550505050565b600090565b6133d06133c3565b6133db81848461339e565b505050565b5b818110156133ff576133f46000826133c8565b6001810190506133e1565b5050565b601f82111561344457613415816132e4565b61341e846132f9565b8101602085101561342d578190505b613441613439856132f9565b8301826133e0565b50505b505050565b600082821c905092915050565b600061346760001984600802613449565b1980831691505092915050565b60006134808383613456565b9150826002028217905092915050565b61349982612531565b67ffffffffffffffff8111156134b2576134b161289b565b5b6134bc8254612ab8565b6134c7828285613403565b600060209050601f8311600181146134fa57600084156134e8578287015190505b6134f28582613474565b86555061355a565b601f198416613508866132e4565b60005b828110156135305784890151825560018201915060208501945060208101905061350b565b8683101561354d5784890151613549601f891682613456565b8355505b6001600288020188555050505b505050505050565b7f4f776e61626c653a2063616c6c6572206973206e6f7420746865206f776e6572600082015250565b600061359860208361253c565b91506135a382613562565b602082019050919050565b600060208201905081810360008301526135c78161358b565b9050919050565b7f4552433732313a20617070726f766520746f2063616c6c657200000000000000600082015250565b600061360460198361253c565b915061360f826135ce565b602082019050919050565b60006020820190508181036000830152613633816135f7565b9050919050565b7f4552433732313a207472616e7366657220746f206e6f6e20455243373231526560008201527f63656976657220696d706c656d656e7465720000000000000000000000000000602082015250565b600061369660328361253c565b91506136a18261363a565b604082019050919050565b600060208201905081810360008301526136c581613689565b9050919050565b600081905092915050565b60006136e282612531565b6136ec81856136cc565b93506136fc81856020860161254d565b80840191505092915050565b600061371482856136d7565b915061372082846136d7565b91508190509392505050565b7f4e487b7100000000000000000000000000000000000000000000000000000000600052601160045260246000fd5b60006137668261263f565b91506137718361263f565b92508282039050818111156137895761378861372c565b5b92915050565b600061379a8261263f565b91506137a58361263f565b92508282019050808211156137bd576137bc61372c565b5b92915050565b7f1901000000000000000000000000000000000000000000000000000000000000600082015250565b60006137f96002836136cc565b9150613804826137c3565b600282019050919050565b6000819050919050565b61382a61382582612fc8565b61380f565b82525050565b600061383b826137ec565b91506138478285613819565b6020820191506138578284613819565b6020820191508190509392505050565b7f4e487b7100000000000000000000000000000000000000000000000000000000600052602160045260246000fd5b7f45434453413a20696e76616c6964207369676e61747572650000000000000000600082015250565b60006138cc60188361253c565b91506138d782613896565b602082019050919050565b600060208201905081810360008301526138fb816138bf565b9050919050565b7f45434453413a20696e76616c6964207369676e6174757265206c656e67746800600082015250565b6000613938601f8361253c565b915061394382613902565b602082019050919050565b600060208201905081810360008301526139678161392b565b9050919050565b7f45434453413a20696e76616c6964207369676e6174757265202773272076616c60008201527f7565000000000000000000000000000000000000000000000000000000000000602082015250565b60006139ca60228361253c565b91506139d58261396e565b604082019050919050565b600060208201905081810360008301526139f9816139bd565b9050919050565b600081519050919050565b600082825260208201905092915050565b6000613a2782613a00565b613a318185613a0b565b9350613a4181856020860161254d565b613a4a81612577565b840191505092915050565b6000608082019050613a6a6000830187612615565b613a776020830186612615565b613a8460408301856127fb565b8181036060830152613a968184613a1c565b905095945050505050565b600081519050613ab0816124a2565b92915050565b600060208284031215613acc57613acb61246c565b5b6000613ada84828501613aa1565b91505092915050565b7f4552433732313a206d696e7420746f20746865207a65726f2061646472657373600082015250565b6000613b1960208361253c565b9150613b2482613ae3565b602082019050919050565b60006020820190508181036000830152613b4881613b0c565b9050919050565b7f4552433732313a20746f6b656e20616c7265616479206d696e74656400000000600082015250565b6000613b85601c8361253c565b9150613b9082613b4f565b602082019050919050565b60006020820190508181036000830152613bb481613b78565b9050919050565b600060a082019050613bd06000830188612fd2565b613bdd6020830187612fd2565b613bea6040830186612fd2565b613bf760608301856127fb565b613c046080830184612615565b9695505050505050565b600060ff82169050919050565b613c2481613c0e565b82525050565b6000608082019050613c3f6000830187612fd2565b613c4c6020830186613c1b565b613c596040830185612fd2565b613c666060830184612fd2565b95945050505050565b7f4e487b7100000000000000000000000000000000000000000000000000000000600052601260045260246000fdfea264697066735822122038943b8fd24c27e3a0a34a0b247d84345359977d2d0cc792b8c632daf3a7839164736f6c63430008110033",
  "immutableReferences": {
    "2237": [
      {
        "length": 32,
        "start": 6750
      }
    ],
    "2239": [
      {
        "length": 32,
        "start": 6709
      }
    ],
    "2241": [
      {
        "length": 32,
        "start": 6623
      }
    ],
    "2243": [
      {
        "length": 32,
        "start": 6826
      }
    ],
    "2245": [
      {
        "length": 32,
        "start": 6859
      }
    ],
    "2247": [
      {
        "length": 32,
        "start": 6793
      }
    ]
  },
  "source": "// SPDX-License-Identifier: MIT\r\npragma solidity ^0.8.9;\r\n\r\nimport \"../../node_modules/@openzeppelin/contracts/token/ERC721/ERC721.sol\";\r\nimport \"../../node_modules/@openzeppelin/contracts/token/ERC721/extensions/ERC721URIStorage.sol\";\r\nimport \"../../node_modules/@openzeppelin/contracts/access/Ownable.sol\";\r\nimport \"../../node_modules/@openzeppelin/contracts/utils/cryptography/draft-EIP712.sol\";\r\n\r\n\r\ncontract LazyNFT is ERC721, ERC721URIStorage, Ownable, EIP712 {\r\n    string private constant SIGNING_DOMAIN = \"Voucher-Domain\";\r\n    string private constant SIGNATURE_VERSION = \"1\";\r\n    address public minter;\r\n \r\n    constructor(address _minter)\r\n        ERC721(\"LazyNFT\", \"LNFT\")\r\n        EIP712(SIGNING_DOMAIN, SIGNATURE_VERSION)\r\n    {\r\n        minter = _minter;\r\n    }\r\n\r\n    struct LazyNFTVoucher {\r\n        uint256 tokenId;\r\n        uint256 price;\r\n        string uri;\r\n        address buyer;\r\n        bytes signature;\r\n    }\r\n\r\n    function recover(LazyNFTVoucher calldata voucher)\r\n        public\r\n        view\r\n        returns (address)\r\n    {\r\n        bytes32 digest = _hashTypedDataV4(\r\n            keccak256(\r\n                abi.encode(\r\n                    \"LazyNFTVoucher(uint256 tokenID, uint256 price, string uri, address buyer)\",\r\n                    voucher.tokenId,\r\n                    voucher.price,\r\n                    keccak256(bytes(voucher.uri)),\r\n                    voucher.buyer\r\n                )\r\n            )\r\n        );\r\n        address signer = ECDSA.recover(digest, voucher.signature);\r\n        return signer;\r\n    }\r\n\r\n    function safeMint(LazyNFTVoucher calldata voucher) public  payable{\r\n        require(owner() == recover(voucher), \"Wrong Signature\");\r\n        require(msg.value>= voucher.price,'Not enough ether');\r\n        _safeMint(voucher.buyer, voucher.tokenId);\r\n        _setTokenURI(voucher.tokenId, voucher.uri);\r\n    }\r\n\r\n    // The following functions are overrides required by Solidity.\r\n\r\n    function _burn(uint256 tokenId)\r\n        internal\r\n        override(ERC721, ERC721URIStorage)\r\n    {\r\n        super._burn(tokenId);\r\n    }\r\n\r\n    function tokenURI(uint256 tokenId)\r\n        public\r\n        view\r\n        override(ERC721, ERC721URIStorage)\r\n        returns (string memory)\r\n    {\r\n        return super.tokenURI(tokenId);\r\n    }\r\n}\r\n",
  "sourcePath": "C:\\Users\\Vignesh\\Desktop\\dapp_starter1\\src\\contracts\\LazyNFT.sol",
  "compiler": {
    "name": "solc",
    "version": "0.8.17+commit.8df45f5f.Emscripten.clang"
  },
  "schemaVersion": "3.4.11",
  "updatedAt": "2023-01-15T05:24:51.264Z",
  "networkType": "ethereum",
  "devdoc": {
    "kind": "dev",
    "methods": {
      "approve(address,uint256)": {
        "details": "See {IERC721-approve}."
      },
      "balanceOf(address)": {
        "details": "See {IERC721-balanceOf}."
      },
      "getApproved(uint256)": {
        "details": "See {IERC721-getApproved}."
      },
      "isApprovedForAll(address,address)": {
        "details": "See {IERC721-isApprovedForAll}."
      },
      "name()": {
        "details": "See {IERC721Metadata-name}."
      },
      "owner()": {
        "details": "Returns the address of the current owner."
      },
      "ownerOf(uint256)": {
        "details": "See {IERC721-ownerOf}."
      },
      "renounceOwnership()": {
        "details": "Leaves the contract without owner. It will not be possible to call `onlyOwner` functions anymore. Can only be called by the current owner. NOTE: Renouncing ownership will leave the contract without an owner, thereby removing any functionality that is only available to the owner."
      },
      "safeTransferFrom(address,address,uint256)": {
        "details": "See {IERC721-safeTransferFrom}."
      },
      "safeTransferFrom(address,address,uint256,bytes)": {
        "details": "See {IERC721-safeTransferFrom}."
      },
      "setApprovalForAll(address,bool)": {
        "details": "See {IERC721-setApprovalForAll}."
      },
      "supportsInterface(bytes4)": {
        "details": "See {IERC165-supportsInterface}."
      },
      "symbol()": {
        "details": "See {IERC721Metadata-symbol}."
      },
      "transferFrom(address,address,uint256)": {
        "details": "See {IERC721-transferFrom}."
      },
      "transferOwnership(address)": {
        "details": "Transfers ownership of the contract to a new account (`newOwner`). Can only be called by the current owner."
      }
    },
    "version": 1
  },
  "userdoc": {
    "kind": "user",
    "methods": {},
    "version": 1
  }
}